:020000040800F2
:100000005807002045010008FD1C0008A90D000844
:10001000D91C00088D0900087B370008000000008B
:100020000000000000000000000000004F23000856
:10003000F90B00080000000019210008BD25000888
:100040005F0100085F0100085F0100085F01000810
:100050005F0100085F0100085F0100085F01000800
:100060005F0100085F0100085F0100085F010008F0
:100070005F0100085F0100085F0100085F010008E0
:100080005F0100085F0100085F0100085F010008D0
:100090005F0100085F0100085F0100085F010008C0
:1000A0005F0100085F0100085F0100085F010008B0
:1000B00021260008412800087D2A00085F01000869
:1000C0005F0100085F0100085F0100085F01000890
:1000D0005F010008B5330008693400080D350008D9
:1000E0005F0100085F0100085F0100085F01000870
:1000F0005F0100085F0100085F0100085F01000860
:100100005F0100085F0100085F0100085F0100084F
:10011000C53200085F010008052D00085F010008D6
:100120005F0100085F0100085F0100085F0100082F
:10013000DFF80CD000F018FC0048004741460008EA
:10014000580700200648804706480047FEE7FEE7BC
:10015000FEE7FEE7FEE7FEE7FEE7FEE7FEE7FEE777
:10016000C125000831010008421C10F8011B0029BC
:10017000FBD1801A7047F0B480EA0102D40F42002C
:10018000B2EB410F02D20246084611464A0042D065
:10019000C30DDDB2C1F3C752AD1A202D35DAC1F35C
:1001A000160141F4000204B15242C5F1200602FAE0
:1001B00006F12A411044B3EBD05F23D0C4B1012D26
:1001C000A0EBC35009DCF0BC4FF0004202EAC3527E
:1001D000DBB200F5000000F0BABA400000F1807018
:1001E00000EBC350A0F1807040EAD170490009E0F3
:1001F000490841EAC071A0EBC35000F50000400877
:1002000000EBC350F0BC00F099BA6142012202EB4E
:100210004101001BF6E7F0BC704781F00041AAE7FE
:1002200080F00040A7E72DE9FE4F804681EA0300F9
:10023000C00F0C46009021F0004123F00045B8EBC0
:100240000200A94105D24046214690461C460B4675
:10025000024623F00040104347D0270DC7F30A00A1
:10026000C3F30A510290401A019040286BDAC3F39D
:10027000130040F4801B0098924620B10023D2EB7B
:10028000030A63EB0B0B01985946C0F1400250463C
:1002900000F023FA06460D4650465946019A00F0F2
:1002A0003BFA10EB08006141002487EA115284EA0E
:1002B000E7731A4340D0009A62B3019A012A4FEAC9
:1002C000075215DC001B61EB02014FF0004202EA0D
:1002D0000752CDE90042001C41F5801132462B4601
:1002E00000F072FA03B0BDE8F08F40462146F9E70E
:1002F000001B61EB0201001C41F5801300185B41FB
:100300002018A2F5001747EB030140EAD570B61993
:100310006D4111E06D084FEA360645EAC0754FEAB7
:100320000752001B61EB0201001C41F580114908D6
:100330004FEA30000019514132462B4603B0BDE868
:10034000F04F00F032BA0098012240000023D0EBB9
:10035000020263EBE073009821464FEAE074B8EBC9
:10036000000061EB0401E9E783F000435BE781F003
:10037000004158E72DE9FE4F81EA030404F00044F0
:1003800021F0004100944FF0000B23F0004350EAAD
:1003900001045ED052EA03045BD0C3F30A54C1F3F4
:1003A0000A552C44A4F2F3340194A0FB0254C1F387
:1003B000130141F48011C3F3130343F4801301FBD1
:1003C000024400FB034E840A970A44EA815447EA38
:1003D0008357A4FB076802958D0A05FB07854FEA42
:1003E000932C04FB0C542705029D4FEA065847EA5C
:1003F0001637B5EB08056EEB070C870E920E47EA31
:10040000811742EA8312A7FB0201B6EB0B0164EBF2
:1004100000042B0D43EA0C335E1844EB1C50DA4603
:100420005146E7FB0201C5F313044FEA0B3343EADD
:1004300014534FEA0432019C43EA0603A4F10C046E
:100440000294009CCDE900B400F0BEF903B0BDE811
:10045000F08F00200146F9E72DE9F04D81EA030411
:1004600004F0004B21F0004514464FF0000A23F041
:10047000004150EA050220D054EA01021DD0C5F324
:100480000A570246C5F31303C1F31300C1F30A561A
:1004900040F4801543F48013A7EB0608101BD646E2
:1004A00008F2FD3873EB050002D308F1010801E002
:1004B00092185B41B8F1000F03DA00200146BDE855
:1004C000F08D00204FF48011064684460EE0171B85
:1004D00073EB050705D3121B63EB050306434CEAD8
:1004E000010C49084FEA300092185B4150EA0107BD
:1004F000EDD152EA030012D082EA040083EA05013A
:10050000084305D0101BAB4106D20122002306E0B0
:1005100000224FF0004302E06FF0010253101AEB8B
:1005200006004CEB085110EB0A0041EB0B01BDE853
:10053000F04D00F03AB9C10F80EAE0700844CA07F4
:100540009623002100F003B90EB540F23341029129
:100550000021CDE900110A460B4600F035F903B041
:1005600000BD00F0004220F00040C10DC0F31600B5
:1005700040F400007F2901DA00207047962903DC4F
:10058000C1F19601C84001E096398840002AF4D0B4
:100590004042704720F00040C10DC0F3160040F407
:1005A00000007F2901DA00207047962903DCC1F1A1
:1005B0009601C8407047963988407047C1F30A5287
:1005C00010B5C1F3130140F2FF3341F480119A4298
:1005D00001DA002010BD40F233439A42A2F23342C6
:1005E00003DC524200F088F810BD904010BD00F0CE
:1005F000004230F000400AD0C10D01F56071C0F337
:10060000160042EA0151C20840071143704700201A
:100610000146704701F0004330B421F0004150EA38
:10062000010206D00A0DA2F56072C1F31301002A7F
:1006300002DC30BC00207047440F44EAC104C10012
:10064000E01830BC00EBC25000F078B830B50B4673
:10065000014600202022012409E021FA02F59D42F2
:1006600005D303FA02F5491B04FA02F52844151EC6
:10067000A2F10102F1DC30BD2DE9F05F054600205A
:1006800092469B4688460646814640241BE0284603
:1006900041464746224600F02FF853465A46C01AB4
:1006A000914110D311461846224600F016F82D1A33
:1006B00067EB01084F4622460120002100F00DF8AB
:1006C00017EB00094E41201EA4F10104DFDC48466F
:1006D00031462A464346BDE8F09F202A04DB203AF3
:1006E00000FA02F1002070479140C2F1200320FA85
:1006F00003F3194390407047202A04DB203A21FA83
:1007000002F00021704721FA02F3D040C2F120022A
:100710009140084319467047202A06DBCB17203A40
:1007200041FA02F043EAE07306E041FA02F3D040F6
:10073000C2F1200291400843194670470029A8BF22
:100740007047401C490008BF20F00100704710B4FA
:10075000B0FA80FC00FA0CF050EA010404BF10BCAF
:10076000704749B1CCF1200421FA04F411FA0CF1DC
:1007700018BF012121430843A3EB0C01CB1D4FEA15
:1007800000614FEA102042BF002010BC704700EB10
:10079000C35010440029A4BF10BC7047401C49003E
:1007A00008BF20F0010010BC704710B5141E73F193
:1007B000000408DA401C41F1000192185B411A4321
:1007C00001D120F0010010BD2DE9F04D92469B466D
:1007D00011B1B1FA81F202E0B0FA80F22032904613
:1007E000FFF77BFF04460F4640EA0A0041EA0B018F
:1007F00053465A46084313D0114653EA010019D014
:10080000C8F140025046FFF777FF05460E465046B6
:1008100059464246FFF761FF084305D0012004E036
:1008200020463946BDE8F08D0020054346EAE076D3
:100830002C4337430A986305E40AA0EB0800002222
:10084000FD0A44EA47540A3002D500200146E9E790
:10085000010510196941DDE9084500196941BDE844
:10086000F04DA2E72DE9F04D00231A461B1A8A41EC
:1008700003DB00200146BDE8F08DC1F30A52C1F34D
:10088000130141F480154FF0000BD10702D100187D
:100890006D41521E0027044640F2FF11384601EB1D
:1008A000620A3E468046024600204FF48011FFF760
:1008B00023FFC2197141BB1846EB0100B4EB030CD6
:1008C00075EB000C04D3E41A65EB000517460E46E1
:1008D000241908F101006D4180463428E3DDF9193F
:1008E00046EB0600091BA84103D24FF0FF32134626
:1008F00001E0002213461BEB070046EB0A51BDE85E
:10090000F04DFFF752BFC1F30A52C1F3130140F299
:10091000FF3341F480119A4202DA00200146704709
:1009200040F233439A42A2F2334202DC5242FFF7D2
:10093000E3BEFFF7D2BE000030B5041E71F1000423
:1009400004DB4FF00044404264EB0101141E73F1DC
:10095000000405DB1C464FF00043524263EB0403E6
:10096000994208BF904230BD064C074D06E0E06852
:1009700040F0010394E8070098471034AC42F6D3E6
:10098000FFF7DAFB3C4E00085C4E000800BFFEE7B4
:1009900030B5034614460022002004E01D5C1544D7
:1009A000EAB2451CA8B28842F8DB104630BD000010
:1009B00010B5044624B98021044800F0F3F903E09F
:1009C0008021024800F0ECF910BD00000020014039
:1009D00010B504462CB94FF48071054800F0E0F9D9
:1009E00004E04FF48071024800F0DCF910BD000013
:1009F0000020014010B504462CB94FF48071054821
:100A000000F0CEF904E04FF48071024800F0CAF91A
:100A100010BD00000008014010B5044624B90221B1
:100A2000044800F0BFF903E00221024800F0B8F9E1
:100A300010BD00000010014000F0805111B10349C9
:100A4000086001E002494860704700000404024069
:100A50000000024021B1026842F00102026004E09D
:100A600002684FF6FE731A400260704701684FF645
:100A7000FE72114001600021016041608160C1602F
:100A80004B49884208D14A490839496841F00F0169
:100A9000474A083A51608AE045491431884208D1F2
:100AA00043490839496841F0F001414A083A516028
:100AB0007DE03F492831884208D13D4908394968DD
:100AC00041F470613A4A083A516070E038493C316B
:100AD000884208D136490839496841F47041344A9E
:100AE000083A516063E032495031884208D13049B8
:100AF0000839496841F470212D4A083A516056E09E
:100B00002B496431884208D129490839496841F4A0
:100B10007001274A083A516049E0254978318842F6
:100B200008D123490839496841F07061204A083AE0
:100B300051603CE01F49884206D1011F096841F01D
:100B40000F01021F116032E01A491431884208D1A6
:100B50001849091F096841F0F001164A121F116077
:100B600025E014492831884208D11249091F096833
:100B700041F470610F4A121F116018E00D493C31B9
:100B8000884208D10B49091F096841F47041094A9C
:100B9000121F11600BE007495031884207D1054907
:100BA000091F096841F47021024A121F1160704741
:100BB000080002400804024010B50022026847F60F
:100BC000F0739A430C6A8B6823430C6923434C6986
:100BD00023438C692343CC6923434C6A23438C6AA7
:100BE00023431A430260CB6843600B6883604B6801
:100BF000C36010BD4160704770472DE9F041024667
:100C000000250026002000230024002791F803C0BF
:100C10000CF00F0591F803C00CF0100CBCF1000FA4
:100C200003D091F802C04CEA050591F800C0BCF170
:100C3000000F31D0146800202BE04FF0010C0CFAAB
:100C400000F3B1F800C00CEA03069E4220D18300F5
:100C50004FF00F0C0CFA03F7BC4305FA03FC4CEA07
:100C6000040491F803C0BCF1280F06D14FF0010C29
:100C70000CFA00FCC2F814C00AE091F803C0BCF101
:100C8000480F05D14FF0010C0CFA00FCC2F810C05F
:100C9000401C0828D1D31460B1F800C0BCF1FF0F8C
:100CA00034DD546800202EE000F1080C4FF00108FC
:100CB00008FA0CF3B1F800C00CEA03069E4221D1F9
:100CC00083004FF00F0C0CFA03F7BC4305FA03FC4A
:100CD0004CEA040491F803C0BCF1280F05D100F1DF
:100CE000080C08FA0CF8C2F8148091F803C0BCF1A3
:100CF000480F07D100F1080C4FF0010808FA0CF872
:100D0000C2F81080401C0828CED35460BDE8F081A2
:100D1000F0B50A46002300240021002500F000461B
:100D2000B6F1004F02D11D4EF16901E01B4E716812
:100D3000C0F3034583B200F44016B6F5401F08D156
:100D400021F07061154E766826F07066134F7E6054
:100D500012E000F48016B6F5801F06D1032606FACD
:100D600005F4A14341F0706106E0460D360103FA37
:100D700006F6B14341F0706122B1460D360103FA27
:100D800006F6314300F00046B6F1004F02D1034EA3
:100D9000F16101E0014E7160F0BD00000000014012
:100DA000416170470161704700BFFEE708B501214E
:100DB000402001F0D3F90121042001F0CFF90121F5
:100DC000202001F0CBF928208DF803000120ADF898
:100DD000000003208DF8020069461D48FFF70DFF53
:100DE00028208DF803001020ADF8000003208DF8B6
:100DF000020069461748FFF700FF28208DF803001E
:100E00000120ADF8000003208DF802006946124869
:100E1000FFF7F3FE28208DF803000820ADF800004E
:100E200003208DF8020069460B48FFF7E6FE01211A
:100E30000748FFF7B5FF10210648FFF7B1FF012172
:100E40000548FFF7ADFF08210348FFF7A9FF08BDDC
:100E500000080140001801400014014008B50121BC
:100E6000082001F07BF90121402001F077F91020E2
:100E70008DF803002020ADF8000003208DF802005B
:100E800069460C48FFF7B9FE10208DF803002020BA
:100E9000ADF8000003208DF8020069460648FFF710
:100EA000ACFE20210348FFF77BFF20210248FFF71B
:100EB00079FF08BD000C01400018014000B589B061
:100EC0000121042001F04AF90121082001F046F92E
:100ED0000121102001F042F90121084601F02EF90C
:100EE0000121084601F03AF901214248FFF710FFBD
:100EF00010208DF82300ADF8200003208DF822008B
:100F000008A93D48FFF779FE18208DF823004FF41B
:100F10008060ADF8200003208DF8220008A9374832
:100F2000FFF76BFE10208DF823002020ADF8200085
:100F300003208DF8220008A93148FFF75EFE10213A
:100F40002D48FFF72DFF4FF480612C48FFF728FF55
:100F500020212B48FFF724FF05A802F0EFF800201E
:100F6000ADF81A00ADF816006320ADF81800472060
:100F7000ADF8140005A94FF0804002F08DF801A8EB
:100F800002F075F86020ADF804000020ADF80C0008
:100F90000120ADF806003120ADF80A0001A9800754
:100FA00001F0C0FF1C208DF8000001208DF8030027
:100FB0008DF801008DF80200684600F0A1FE0121C5
:100FC000880702F0C4F80121880701F0CBFE012256
:100FD0001146900701F0E6FE0821C80601F0F2FF75
:100FE0000121880701F0B2FE0121880701F0BDFE52
:100FF00009B000BD0003180000080140000C0140CA
:101000000010014000B589B00121080201F0A6F8E6
:101010000121102001F0A2F80121022001F08EF838
:101020000121084601F09AF801214148FFF770FEBE
:1010300010208DF823008020ADF8200003208DF8CB
:10104000220008A93B48FFF7D8FD18208DF823009F
:101050004020ADF8200003208DF8220008A9364872
:10106000FFF7CBFD10208DF823002020ADF82000E5
:1010700003208DF8220008A92F48FFF7BEFD80212C
:101080002C48FFF78DFE40212B48FFF789FE2021D9
:101090002948FFF785FE05A802F050F80020ADF8BA
:1010A0001A00ADF816006320ADF818004720ADF81F
:1010B000140005A9214801F0EFFF01A801F0D7FFB6
:1010C0006020ADF804000020ADF80C000120ADF860
:1010D00006003120ADF80A0001A9184801F06CFEA5
:1010E0001D208DF8000001208DF803008DF801000F
:1010F0008DF80200684600F003FE01210F4802F05F
:1011000026F801210D4801F02DFE012211460B4861
:1011100001F048FE0821094801F09AFE0121074824
:1011200001F014FE0121054801F01FFE09B000BDC9
:10113000000C1A0000200140001001400004004093
:1011400000B589B00121080201F008F80121102042
:1011500001F004F80121022000F0F0FF012108460F
:1011600000F0FCFF01214248FFF7D2FD10208DF86E
:1011700023000001ADF8200003208DF8220008A90B
:101180003C48FFF73AFD18208DF823008020ADF889
:10119000200003208DF8220008A93748FFF72DFD15
:1011A00010208DF823002020ADF8200003208DF8BA
:1011B000220008A93048FFF720FD4FF480712D4828
:1011C000FFF7EEFD80212C48FFF7EAFD20212A4899
:1011D000FFF7E6FD05A801F0B1FF0020ADF81A0009
:1011E000ADF816006320ADF818004720ADF81400E4
:1011F00005A9224801F050FF01A801F038FF602046
:10120000ADF804000020ADF80C000120ADF8060098
:101210003120ADF80A0001A9184801F023FE1D2075
:101220008DF8000001208DF803008DF801008DF885
:101230000200684600F064FD0121104801F087FFBC
:1012400001210E4801F08EFD012211460B4801F0EC
:10125000A9FD0821094801F057FE0121074801F0C6
:1012600075FD0121054801F080FD09B000BD0000B9
:10127000000C1A0000200140001001400004004052
:1012800000B589B00121202000F068FF012108206D
:1012900000F064FF0121080200F060FF012104203A
:1012A00000F04CFF10208DF823004002ADF8200024
:1012B00003208DF8220008A93C48FFF79EFC182067
:1012C0008DF823004FF48070ADF8200003208DF8D6
:1012D000220008A93648FFF790FC10208DF8230063
:1012E0008020ADF8200003208DF8220008A93148A5
:1012F000FFF783FC4FF400512C48FFF751FD4FF4EA
:1013000080712B48FFF74CFD80212A48FFF748FDEC
:1013100005A801F013FF0020ADF81A00ADF8160083
:101320006320ADF818004720ADF8140005A9224845
:1013300001F0B2FE01A801F09AFE6020ADF80400B1
:101340000020ADF80C000120ADF806003120ADF80A
:101350000A0001A9184801F0E5FD1E208DF80000E3
:1013600001208DF803008DF801008DF80200684619
:1013700000F0C6FC0121104801F0E9FE01210E48F1
:1013800001F0F0FC012211460B4801F00BFD082191
:10139000094801F017FE0121074801F0D7FC01219F
:1013A000054801F0E2FC09B000BD0000002001404A
:1013B000000C0140001401400008004000B589B055
:1013C0000121042000F0CAFE0121102000F0C6FE19
:1013D0000121202000F0C2FE0121022000F0AEFE1B
:1013E0000121084600F0BAFE01214348FFF790FCB6
:1013F00010208DF823000001ADF8200003208DF8A7
:10140000220008A93D48FFF7F8FB18208DF82300BB
:101410004FF48070ADF8200003208DF8220008A959
:101420003748FFF7EAFB10208DF823008020ADF845
:10143000200003208DF8220008A93248FFF7DDFBC9
:101440004FF480712D48FFF7ABFC4FF480712C48AE
:10145000FFF7A6FC80212B48FFF7A2FC05A801F0AE
:101460006DFE0020ADF81A00ADF816006320ADF84F
:1014700018004720ADF8140005A9234801F00CFE20
:1014800001A801F0F4FD6020ADF804000020ADF8E3
:101490000C000120ADF806003120ADF80A0001A9CA
:1014A000194801F03FFD1D208DF8000001208DF846
:1014B00003008DF801008DF80200684600F020FC62
:1014C0000121114801F043FE01210F4801F04AFCBF
:1014D000012211460C4801F065FC08210A4801F080
:1014E00071FD0121084801F031FC0121064801F09D
:1014F0003CFC09B000BD0000000C1A0000080140CF
:1015000000100140001401400004004000B589B003
:101510000121102000F022FE0121202000F01EFEFB
:101520000121022000F00AFE0121084600F016FE0B
:1015300001214248FFF7ECFB10208DF82300022028
:10154000ADF8200003208DF8220008A93C48FFF7E1
:1015500054FB18208DF823004FF40070ADF82000E4
:1015600003208DF8220008A93548FFF746FB10201C
:101570008DF823008020ADF8200003208DF8220094
:1015800008A93048FFF739FB02212D48FFF708FC76
:101590004FF400712A48FFF703FC80212948FFF728
:1015A000FFFB05A801F0CAFD0020ADF81A00ADF858
:1015B00016006320ADF818004720ADF8140005A907
:1015C000214801F069FD01A801F051FD6020ADF84E
:1015D00004000020ADF80C000120ADF80600312019
:1015E000ADF80A0001A9184801F0F6FC1D208DF89D
:1015F000000001208DF803008DF801008DF8020035
:10160000684600F07DFB01210F4801F0A0FD01219B
:101610000D4801F0A7FB012211460B4801F0C2FB67
:101620000821094801F016FD0121074801F08EFB51
:101630000121054801F099FB09B000BD000C1A001A
:1016400000100140001401400004004010B50446A1
:10165000204600F08BF8322104FB01F002F016FD69
:10166000044908802A231C2211460248008800F001
:101670009DF810BDA400002070B505460C46002D55
:101680000CDA0020FFF794F90020FFF7A1F9002001
:10169000FFF7B0F90020FFF7BFF90DE0002D0BDDDB
:1016A0000120FFF785F90120FFF792F90120FFF7EC
:1016B000A1F90120FFF7B0F9002C0CDD0020FFF7A5
:1016C00077F90120FFF784F90020FFF793F9012053
:1016D000FFF7A2F90DE0002C0BDA0120FFF768F903
:1016E0000020FFF775F90120FFF784F90020FFF7CC
:1016F00093F970BD70B504460D4600BF29462046DB
:10170000FFF7BAFF2946204602F0ADFF064606EB7A
:1017100086104000044908602A231C221146024812
:10172000006800F043F870BDA000002070B50446CA
:101730000D4600BF00200C49086029462046FFF7EF
:101740009BFF2946204602F08EFF064606EB8600E8
:1017500000EBC6000449086002230122114602483A
:10176000006800F023F870BDA000002010B504460A
:10177000002C0CDD0020FFF71BF90120FFF728F9F2
:101780000120FFF737F90020FFF746F90DE0002CA4
:101790000BDA0120FFF70CF90020FFF719F9002000
:1017A000FFF728F90120FFF737F910BD2DE9F04FB9
:1017B00089B004460D4616469946002C06DD614860
:1017C000007820F0080008305E490870012C24D110
:1017D000A01E5C4948610846007820F00700801C84
:1017E00008704FF47A7048606421574801F049FC52
:1017F0003221554801F047FC3221534801F045FCA5
:101800003221514801F043FC32214F4801F041FCA4
:1018100001214D4801F0A9FA90E0002CFCD0642091
:101820004543464309FB00F94848B0FBF9F04549F8
:1018300008614748B0FBF5F00190FEF785FE0746CA
:1018400002F026FF0022434BCDE90201FEF792FD94
:101850000022414BCDE90401FEF7FEFDCDE9060172
:10186000FEF7ACFE37494860C5EBC50000EB4510FC
:101870006421B0FBF1F109FB09F0B0FBF1F01FFAB4
:1018800080FABAF1000F01D14FF0010A04FB06F013
:10189000A919B0FBF1F01FFA80FBBBF1000F01D1D9
:1018A0004FF0010BD34504DCABEB04002549C860C5
:1018B00006E00AFB05F0B0FBF6F040422149C860A3
:1018C0002048C06818B94FF0FF301E49C8601D4855
:1018D000C06820441B4988600846406809698842FE
:1018E0000AD818480069174948600846007820F06F
:1018F0000700C01C087006E01248007820F00700BE
:10190000401C1049087000200E49486164210E48AF
:1019100001F0B7FB32210C4801F0B5FB32210A4837
:1019200001F0B3FB3221084801F0B1FB3221064837
:1019300001F0AFFB0121044801F017FA09B0BDE83E
:10194000F08F0000A401002000040040FDFE020012
:10195000F23557020068BA40000059402DE9F04FB7
:1019600089B004460D4616469946002C06DD5948B6
:10197000007820F00800083056490870012C1CD16E
:10198000A01E544948610846007820F00700801CDA
:1019900008704FF47A7048606421C00601F071FB52
:1019A0003221480701F073FB3221480701F071FB37
:1019B0000121880701F0D9F988E0002CFCD06420CF
:1019C0004543464309FB00F94348B0FBF9F0414960
:1019D00008614248B0FBF5F00190FEF7B5FD0746FF
:1019E00002F056FE00223E4BCDE90201FEF7C2FC9A
:1019F00000223C4BCDE90401FEF72EFDCDE90601A6
:101A0000FEF7DCFD33494860C5EBC50000EB45102F
:101A10006421B0FBF1F109FB09F0B0FBF1F01FFA12
:101A200080FABAF1000F01D14FF0010A04FB06F071
:101A3000A919B0FBF1F01FFA80FBBBF1000F01D137
:101A40004FF0010BD34504DCABEB04002149C86027
:101A500006E00AFB05F0B0FBF6F040421D49C86005
:101A60001C48C06818B94FF0FF301A49C8601948BF
:101A7000C068204417498860084640680969884260
:101A80000AD814480069134948600846007820F0D5
:101A90000700C01C087006E00E48007820F0070020
:101AA000401C0C49087000200A494861642108075D
:101AB00001F0E7FA3221480701F0E9FA322148073C
:101AC00001F0E7FA0121880701F04FF909B0BDE8FC
:101AD000F08F0000BC010020FDFE0200F23557022D
:101AE0000068BA40000059402DE9F04F89B0044623
:101AF0000D4616469946002C06DD5948007820F020
:101B00000800083056490870012C1CD1A01E544909
:101B100048610846007820F00700801C08704FF4E8
:101B20007A70486064214F4801F0ABFA32214D4889
:101B300001F0ADFA32214B4801F0ABFA01214948DE
:101B400001F013F988E0002CFCD0642045434643A3
:101B500009FB00F94448B0FBF9F0414908614348EA
:101B6000B0FBF5F00190FEF7EFFC074602F090FDA8
:101B700000223F4BCDE90201FEF7FCFB00223D4B6A
:101B8000CDE90401FEF768FCCDE90601FEF716FD7C
:101B900033494860C5EBC50000EB45106421B0FB3C
:101BA000F1F109FB09F0B0FBF1F01FFA80FABAF18C
:101BB000000F01D14FF0010A04FB06F0A919B0FB98
:101BC000F1F01FFA80FBBBF1000F01D14FF0010BC8
:101BD000D34504DCABEB04002149C86006E00AFBF6
:101BE00005F0B0FBF6F040421D49C8601C48C068D3
:101BF00018B94FF0FF301A49C8601948C06820442E
:101C00001749886008464068096988420AD814481C
:101C10000069134948600846007820F00700C01C9E
:101C2000087006E00E48007820F00700401C0C49C0
:101C3000087000200A49486164210A4801F021FA2D
:101C40003221084801F023FA3221064801F021FA36
:101C50000121044801F089F809B0BDE8F08F0000C7
:101C6000D401002000080040FDFE0200F2355702BA
:101C70000068BA4000005940012805D105490968AB
:101C8000491C044A116004E002490968491E014ADE
:101C90001160704794000020012805D105490968AA
:101CA000491C044A116004E002490968491E014ABE
:101CB0001160704798000020012805D10549096886
:101CC000491C044A116004E002490968491E014A9E
:101CD000116070479C00002000BFFEE710B504466D
:101CE00024B910210448FFF75BF803E010210248F3
:101CF000FFF758F810BD00000008014070470000D1
:101D000070B5002100230F22C47804B3154C246859
:101D100004F4E064C4F5E064210AC1F10403CA409C
:101D2000447804FA03F184781440214309010E4CED
:101D30000678A155047804F01F050124AC4005780D
:101D40006D11AD0005F1E025C5F8004109E004780A
:101D500004F01F050124AC40044D0678761145F8C7
:101D6000264070BD0CED00E000E400E080E100E002
:101D700002490143024A1160704700000000FA0561
:101D80000CED00E010B54FF400410948FFF70AF8E8
:101D90004FF400510648FFF705F84FF4005104488E
:101DA000FEF7FEFF4FF400410148FEF7F9FF10BDBA
:101DB000001C014010B54FF400410748FEF7F2FF48
:101DC0004FF400510448FEF7EBFF4FF40051024876
:101DD000FEF7E8FF10BD0000001C014010B54FF4F5
:101DE00000410448FEF7DEFF4FF400410148FEF7D2
:101DF000D7FF10BD001C014008B50121802000F074
:101E0000ADF94FF42040ADF8000010208DF803002C
:101E100003208DF8020069463C48FEF7EEFE4FF4C1
:101E200020413A48FEF7BEFF4FF4487002F0E2FB53
:101E30000021AE2000F06CF80021084600F068F8A0
:101E40000021102000F064F80021402000F060F82C
:101E50000021B02000F05CF80021812000F058F84B
:101E60000021FF2000F054F80021A12000F050F8DC
:101E70000021A62000F04CF80021A82000F048F82E
:101E800000213F2000F044F80021C82000F040F875
:101E90000021D32000F03CF80021084600F038F87B
:101EA0000021D52000F034F80021802000F030F827
:101EB0000021D82000F02CF80021052000F028F89F
:101EC0000021D92000F024F80021F12000F020F8B2
:101ED0000021DA2000F01CF80021122000F018F890
:101EE0000021DB2000F014F80021302000F010F871
:101EF00000218D2000F00CF80021142000F008F8DB
:101F00000021AF2000F004F808BD0000001C0140D3
:101F100070B504460D461DB1E0B200F049F802E08C
:101F2000E0B200F02FF870BD2DE9F04105462C46D7
:101F30004FF400411248FEF733FF00261CE027460D
:101F400007F08007802F04D1B9010D48FEF72AFF62
:101F500004E04FF400510A48FEF722FF6006040E29
:101F60004FF400410648FEF71DFF4FF400410448BE
:101F7000FEF716FF701CC6B2082EE0DBBDE8F0814C
:101F8000001C014010B50446FFF7FCFE7820FFF767
:101F9000CBFFFFF723FF0020FFF7C6FFFFF71EFF71
:101FA0002046FFF7C1FFFFF719FFFFF703FF10BD42
:101FB00010B50446FFF7E6FE7820FFF7B5FFFFF700
:101FC0000DFF4020FFF7B0FFFFF708FF2046FFF7A7
:101FD000ABFFFFF703FFFFF7EDFE10BD2DE9F04F5C
:101FE00089B004468946B9F10B0F7DD16278A9F119
:101FF000010081B22046FEF7CBFC0890A9F1010058
:10200000215C0898814202D009B0BDE8F08F2078A9
:10201000552826D16078532823D194F806A094F847
:1020200007B04AEA0B2000B207900798FEF783FA40
:102030000390FEF7DCFA07460022304BFEF70CFA5D
:1020400000222F4BCDE90401FEF794F90546FEF777
:10205000E1FA06902B490698086001202A49087089
:1020600049E02078552846D16078522843D120791C
:10207000079060790690DDE9061040EA012000B281
:1020800005900598FEF757FA0190FEF7B0FA8246E0
:1020900000221A4BFEF7E0F9074600221B4BFEF721
:1020A00069F90546FEF7B6FA19490860A079049067
:1020B000E0790390DDE9031040EA012000B20290CC
:1020C0000298FEF738FA0190FEF791FA07460022CF
:1020D0000A4BFEF7C1F9824600220C4BFEF74AF983
:1020E0000546FEF797FA00E006E00A49086001207D
:1020F0000549087000BF00BF00BF85E70000E04051
:1021000000806640000000200C00002000409F403E
:1021100004000020080000207047000029B1064A92
:1021200052690243044B5A6104E0034A52698243F4
:10213000014B5A61704700000010024029B1064A65
:10214000D2690243044BDA6104E0034AD269824354
:10215000014BDA61704700000010024029B1064AC5
:1021600092690243044B9A6104E0034A92698243F4
:10217000014B9A61704700000010024030B5002109
:102180000022002400232D4D6D6805F00C0121B1C3
:10219000042905D0082923D105E0294D056022E056
:1021A000274D05601FE0254D6D6805F47012234D25
:1021B0006D6805F48034022505EB92421CB9214D6F
:1021C000554305600BE01D4D6D6805F400351DB1EC
:1021D0001C4D5543056002E0194D5543056002E072
:1021E000174D056000BF00BF144D6D6805F0F0018C
:1021F0000909154D6B5C0568DD4045600F4D6D6844
:1022000005F4E061090A104D6B5C4568DD408560AE
:102210000A4D6D6805F46051C90A0B4D6B5C456849
:10222000DD40C560054D6D6805F44041890B074DE3
:102230006B5CC568B5FBF3F5056130BD001002406D
:1022400000127A0000093D0028000020380000201C
:102250002DE9F05F82465046FEF776F980460B4A3C
:102260000B4BFEF787F8064600220A4BFDF7DBFF13
:102270000446FEF7CFF983465846FEF78BF984B241
:102280002146054800F003FFBDE8F09F8B6CE7FB9B
:10229000A9F1B23F00001440000C00402DE9F05FAE
:1022A00082465046FEF750F980460B4A0B4BFEF72C
:1022B00061F8064600220A4BFDF7B5FF0446FEF71B
:1022C000A9F983465846FEF765F984B221460548C8
:1022D00000F0DFFEBDE8F09F8B6CE7FBA9F1B23F99
:1022E00000001440000C004021B1028842F040027E
:1022F000028004E002884FF6BF731A4002807047E4
:102300001AB183880B43838002E083888B438380E8
:10231000704710B50022028802F441520B884C88A5
:1023200023438C882343CC8823430C8923434C8943
:1023300023438C892343CC8923431A430280838B14
:102340004FF2FF74234083830B8A038210BD7047D2
:1023500005480078012804D10020034908700120B5
:1023600070470020FCE700006000002000B589B045
:1023700001210420FFF7F2FE01210820FFF7DEFE15
:1023800018208DF823000420ADF8200003208DF8DC
:10239000220008A91B48FEF730FC0020ADF80A0017
:1023A000ADF80600C720ADF8080041F61F40ADF8B3
:1023B000040000208DF80C0001A9134800F06CFE09
:1023C00004A800F054FE6020ADF810000020ADF825
:1023D00018000120ADF812000020ADF8160004A985
:1023E000094800F09FFD0121074800F0EBFD0121A5
:1023F000054800F0ABFC0121034800F0B6FC09B031
:1024000000BD000000080140000C004000B589B08C
:1024100001210420FFF7A2FE01210820FFF78EFE14
:1024200018208DF823000820ADF8200003208DF837
:10243000220008A91B48FEF7E0FB0020ADF80A00C7
:10244000ADF80600C720ADF8080041F61F40ADF812
:10245000040000208DF80C0001A9134800F01CFEB8
:1024600004A800F004FE6020ADF810000020ADF8D4
:1024700018000120ADF812000020ADF8160004A9E4
:10248000094800F0A9FD0121074800F0E3FD012102
:10249000054800F05BFC0121034800F066FC09B030
:1024A00000BD000000080140000C004010B500F025
:1024B00001F810BD0CB50020019000903348006871
:1024C00040F480303149086000BF3048006800F4B3
:1024D000003000900198401C0190009818B90198B4
:1024E000B0F5A06FF1D12948006800F4003010B1B8
:1024F0000120009001E0002000900098012843D1C5
:102500002348006840F01000214908600846006830
:1025100020F0030008600846006840F002000860F0
:102520001A484068194948600846406848600846AB
:10253000406840F4806048600846406820F47C10A1
:1025400048600846406840F4E81048600846006863
:1025500040F08070086000BF0C48006800F0007018
:102560000028F9D00948406820F003000749486076
:102570000846406840F00200486000BF03484068D9
:1025800000F00C000828F9D10CBD0000001002403A
:1025900000200240042808D14FF0E021096941F0F1
:1025A00004014FF0E022116107E04FF0E0210969DA
:1025B00021F004014FF0E0221161704770470000E4
:1025C00010B51348006840F0010011490860084642
:1025D0004068104908400E494860084600680E49A6
:1025E00008400B4908600846006820F48020086015
:1025F0000846406820F4FE0048604FF41F008860E1
:10260000FFF754FF4FF000600449086010BD000060
:10261000001002400000FFF8FFFFF6FE08ED00E0AA
:1026200010B50121880700F0ACFB00287CD0012107
:10263000880700F097FB7D484068C0F34F004FF0DB
:102640008041888779484068C0F34F007849088006
:1026500076488088090688857448007800F007006D
:1026600030B1012817D0022872D0032812D170E0AF
:10267000002070490860704908604FF08040008C6D
:1026800020F480504FF08041088400214FF08040BA
:1026900000F06BFBC6E04FF08040008C40F48050AF
:1026A0004FF08041088461490978C1F3C000FFF709
:1026B000F3FA60480068401C5E4908605B48406966
:1026C000401C5A494861084640685B490968022233
:1026D00002FB0011554840698000401C91FBF0F05E
:1026E000524949680C1A514840685349096802FB2D
:1026F00000114E4840698000401C91FBF0F200FB45
:1027000012104D490860494880684A490968884262
:102710000BD84648C068454948610846007820F013
:102720000700801C087012E07FE040480069A0426A
:102730000DD3424804603D48046900203E490860CA
:102740003A48007820F00700C01C3849087069E05A
:1027500025E04FF08040008C40F480504FF08041E5
:10276000088432490978C1F3C000FFF795FA31486F
:102770000068401C2F4908602C480469806809687B
:1027800088420BD82948C068284948612B4804680A
:102790000846007820F00700801C087042E04FF0E7
:1027A0008040008C40F480504FF0804108841F49E5
:1027B0000978C1F3C000FFF76FFA1E480068401C9B
:1027C0001C49086019484069401C1849486108467E
:1027D000406819490968022202FB00111348406948
:1027E0008000401C91FBF0F0104949680C1A0F481A
:1027F00040681149096802FB00110C4840698000DB
:10280000401C91FBF0F200FB12100B4908600748D6
:102810004069002805DB0548007820F007000349DF
:10282000087000BF00BF0148446010BDBC0100201B
:10283000400000404C0000205000002048000020D4
:1028400010B50121884800F09CFA00287ED00121B3
:10285000854800F087FA85484068C0F34F008249F8
:102860003431088081484068C0F34F00091D08805A
:102870007E484068C0F34F00091D08807B484068CF
:10288000C0F34F00091D08807848808876492C31B4
:1028900008807648007800F0070030B1012816D093
:1028A000022872D0032811D170E00020704908601E
:1028B000704908606C482030008820F480506A49D4
:1028C000203108800021684800F04FFAC7E06648D0
:1028D0002030008840F480506349203108806349EB
:1028E0000978C1F3C000FFF7C7F961480068401CD0
:1028F0005F4908605D484069401C5C494861084682
:1029000040685C490968022202FB0011574840698F
:102910008000401C91FBF0F0544949680C1A534860
:1029200040685449096802FB001150484069800022
:10293000401C91FBF0F200FB12104E4908604B481E
:1029400080684B49096888420CD800E08AE0474813
:10295000C068464948610846007820F00700801C9E
:10296000087011E041480069A0420DD3424804605C
:102970003E48046900203F4908603C48007820F048
:102980000700C01C3949087069E025E0364820304E
:10299000008840F480503449203108803349097858
:1029A000C1F3C000FFF768F931480068401C3049A6
:1029B00008602E4804698068096888420BD82B4853
:1029C000C0682A4948612C4804680846007820F00D
:1029D0000700801C087042E023482030008840F443
:1029E000805021492031088020490978C1F3C00076
:1029F000FFF742F91E480068401C1D4908601B484B
:102A00004069401C194948610846406819490968ED
:102A1000022202FB0011154840698000401C91FB16
:102A2000F0F0124949680C1A1048406811490968C9
:102A300002FB00110D4840698000401C91FBF0F240
:102A400000FB12100B49086008484069002805DBAC
:102A50000648007820F007000449087000BF00BF56
:102A60000248446010BD000000040040A4010020A2
:102A700040000020440000203C00002010B501214F
:102A8000814800F07EF900287CD001217E4800F0CA
:102A900069F97E484068C0F34F007B493C310880AB
:102AA0007A484068C0F34F00091D08807748808845
:102AB00075492C3108807548007800F0070030B166
:102AC000012816D0022871D0032811D16FE0002010
:102AD0006F4908606F4908606B482030008820F417
:102AE00080506949203108800021674800F03DF995
:102AF000C6E065482030008840F4805062492031AB
:102B0000088062490978C1F3C000FFF7D5F8604832
:102B10000068401C5E4908605C484069401C5B4995
:102B20004861084640685B490968022202FB0011BF
:102B3000564840698000401C91FBF0F053494968B9
:102B40000C1A524840685349096802FB00114F486B
:102B500040698000401C91FBF0F200FB12104D49CF
:102B600008604A4880684A49096888420BD8474843
:102B7000C068464948610846007820F00700801C7C
:102B8000087012E07FE041480069A0420DD342483E
:102B900004603E48046900203E4908603B480078D4
:102BA00020F00700C01C3949087069E025E036486C
:102BB0002030008840F48050334920310880334968
:102BC0000978C1F3C000FFF777F831480068401C6E
:102BD0002F4908602D4804698068096888420BD82D
:102BE0002A48C068294948612B480468084600788B
:102BF00020F00700801C087042E023482030008845
:102C000040F4805020492031088020490978C1F3E0
:102C1000C000FFF751F81E480068401C1C490860BE
:102C20001A484069401C19494861084640681949DA
:102C30000968022202FB0011144840698000401C10
:102C400091FBF0F0114949680C1A1048406811498D
:102C5000096802FB00110D4840698000401C91FB8F
:102C6000F0F200FB12100B49086008484069002888
:102C700005DB0648007820F007000449087000BF13
:102C800000BF0248446010BD00080040D40100208D
:102C9000580000205C000020540000201FB50121D6
:102CA0001020FFF74BFA0020ADF80A00ADF806003F
:102CB00041F61F40ADF8080042F20F70ADF8040075
:102CC00001A90F4800F0E8F936208DF80000012036
:102CD0008DF8030002208DF801008DF8020068468F
:102CE000FFF70EF801221146054800F05BF80121BC
:102CF000034800F037F80121014800F036F81FBD05
:102D00000010004010B501210C4800F03AF878B1ED
:102D10000B48007808B9012000E00020084908703D
:102D200008480078FFF794FA07480078FFF7B6FAEA
:102D30000121024800F016F810BD0000001000400C
:102D4000AC000020910000209200002021B10288F8
:102D500042F08002028004E002884FF67F731A403E
:102D600002807047CA430282704721B1028842F054
:102D70000102028004E002884FF6FE731A400280CE
:102D8000704730B50246002000230024158A05EA6A
:102D90000103958905EA010413B10CB1012000E09B
:102DA000002030BD1AB183890B43838102E08389FF
:102DB0008B4383817047000070B5002400220023FC
:102DC000058C4FF6FE7635400584028C8388048B93
:102DD0004FF68F752C40B51E2C400D882C43751E68
:102DE0002A400D892A434D882A43144DA8420BD00E
:102DF000134DA84208D0134DA84205D0124DA84249
:102E000002D0124DA84213D14FF6F7752A404D89D2
:102E10002A434FF6FB752A408D882A434FF6FF65FB
:102E20002B404FF6FF552B408D892B43CD892B43EB
:102E300083800483CD888586028470BD002C014088
:102E4000003401400040014000440140004801407E
:102E50000A460021018B4FF6F77319401143018395
:102E60007047000070B5002400220023058C4FF647
:102E7000EF7635400584028C8388048B48F6FF7515
:102E80002C404FF6FF452C400D884FF6FF7606EAA2
:102E900005252C434FF6DF752A400D8906EA0515F6
:102EA0002A434D8806EA05152A43154DA84202D04B
:102EB000144DA8421DD14FF67F752A404D894FF61B
:102EC000FF7606EA05152A434FF6BF752A408D881E
:102ED00006EA05152A434FF6FF352B404FF2FF75E2
:102EE0002B408D8906EA85052B43CD8906EA8505A9
:102EF0002B4383800483CD880587028470BD000046
:102F0000002C0140003401400A460021018B4FF2A1
:102F1000FF7319404FF6FF7303EA0223194301833D
:102F20007047000070B5002400220023058C4FF686
:102F3000FF6635400584028C8388848B4FF68F753D
:102F40002C404FF6FC752C400D882C434FF6FF5556
:102F50002A400D894FF6FF7606EA05252A434D885B
:102F600006EA05252A43154DA84202D0144DA84271
:102F70001DD14FF2FF752A404D894FF6FF7606EAC4
:102F800005252A434FF6FF352A408D8806EA052598
:102F90002A434EF6FF752B404DF6FF752B408D8969
:102FA00006EA05152B43CD8906EA05152B438380D8
:102FB0008483CD888587028470BD0000002C014089
:102FC000003401400A460021818B4FF6F773194007
:102FD000114381837047000070B500220023002454
:102FE000058C4EF6FF7635400584038C8488828BF1
:102FF00048F6FF752A404FF6FF452A400D884FF6E8
:10300000FF7606EA05252A434DF6FF752B400D890C
:1030100006EA05352B434D8806EA05352B430B4D53
:10302000A84202D00A4DA84208D14BF6FF752C40A9
:103030008D894FF6FF7606EA85152C4384808283BE
:10304000CD88A0F84050038470BD0000002C0140E2
:10305000003401400A460021818B4FF2FF73194072
:103060004FF6FF7303EA022319438183704700215F
:10307000018041808180C180018141818181C18144
:1030800070478185704781867047018770478187C7
:103090007047A0F840107047002202881D4B9842EC
:1030A0000ED01D4B98420BD0B0F1804F08D01B4B77
:1030B000984205D01A4B984202D01A4B984204D13C
:1030C0004FF68F731A404B881A43174B984207D01C
:1030D000164B984204D04FF6FF431A40CB881A4350
:1030E00002808B8883850B8803850A4B98420BD01E
:1030F000094B984208D00E4B984205D00D4B984290
:1031000002D00D4B984201D10B7A038601238382B2
:1031100070470000002C01400034014000040040D2
:1031200000080040000C0040001000400014004067
:103130000040014000440140004801404FF6FF714B
:10314000818000210180C18041800172704721B1DE
:10315000028842F00402028004E002884FF6FB730A
:103160001A4002807047000000B587B0012104209A
:10317000FEF7F4FF01218803FEF7F0FF4FF4007023
:10318000ADF8180003208DF81A0018208DF81B00E8
:1031900006A91D48FDF731FD4FF48060ADF8180019
:1031A00004208DF81B0006A91748FDF726FD2520F1
:1031B0008DF8140000208DF815008DF81600012000
:1031C0008DF8170005A8FEF79BFD4FF4E130019044
:1031D0000020ADF80800ADF80A00ADF80C00ADF81D
:1031E00010000C20ADF80E0001A9084800F050FABC
:1031F000012240F22551054800F024FA012103483C
:1032000000F0DDF907B000BD0008014000380140C2
:1032100000B587B001212020FEF7A0FF012148045E
:10322000FEF78CFF01210846FEF798FF01210820D8
:10323000FDF76EFD2020ADF8180003208DF81A0070
:1032400018208DF81B0006A91C48FDF7D6FC40206D
:10325000ADF8180004208DF81B0006A91748FDF7EB
:10326000CCFC26208DF8140000208DF815008DF878
:10327000160001208DF8170005A8FEF741FD4FF458
:10328000E13001900020ADF80800ADF80A00ADF87B
:103290000C00ADF810000C20ADF80E0001A9084894
:1032A00000F0F6F9012240F22551054800F0CAF974
:1032B0000121034800F083F907B000BD001401406C
:1032C0000044004010B540F22551284800F090F924
:1032D000012849D1254800F047FAC4B224480078B3
:1032E00048B9552C3FD1234804700120204908706B
:1032F0002149087037E01E480078012833D11E4864
:1033000001780078401C1C4A10701A48445410463A
:103310000078022815D117484078532811D0154855
:10332000407852280DD013484078552803D1012009
:103330001146087012E000200D4908700E4908700F
:103340000CE00D4800780B2808D10B210948FEF746
:1033500045FE0020084908700549087040F22551D3
:10336000024800F01DF900BF10BD0000004C0040F5
:103370008B000020CE0000208C00002010B50446F9
:103380000548048000BF80210348001F00F023F996
:103390000028F8D010BD0000044C004010B50446D1
:1033A000FF2000F051F8204600F04EF8FE2000F01B
:1033B0004BF810BD10B540F225511E4800F018F929
:1033C000012836D11B4800F0CFF9C4B21A48007862
:1033D00040B9FF2C27D10120174908700020174958
:1033E000087020E014480078012810D114481349CF
:1033F0000978445411480078401C10490870084668
:10340000007807280FDD02200B4908700BE00A48FE
:103410000078022807D1FE2C05D10020064908704B
:1034200001200849087040F22551024800F0B8F820
:1034300000BF10BD0038014085000020860000203C
:10344000670000206000002010B504460548048095
:1034500000BF80210348001F00F0BDF80028F8D00D
:1034600010BD00000438014010B540F2255122483B
:1034700000F0BEF801283DD140F225511E4800F071
:10348000B7F8012836D11C4800F06EF9C4B21B48C9
:10349000007840B9AF2C27D10120184908700020CE
:1034A0001749087020E015480078012810D1154808
:1034B00013490978445412480078401C1049087098
:1034C0000846007807280FDD02200C4908700BE041
:1034D0000A480078022807D1AE2C05D10020074900
:1034E000087001200849087040F22551024800F098
:1034F00057F800BF10BD00000044004087000020C6
:1035000088000020720000206100002010B540F209
:1035100025511E4800F06CF8012836D11B4800F0F8
:1035200023F9C4B21A48007840B9FF2C27D10120F2
:103530001749087000201749087020E014480078E7
:10354000012810D1144813490978445411480078CF
:10355000401C104908700846007807280FDD02203B
:103560000B4908700BE00A480078022807D1FE2CAE
:1035700005D100200649087001200849087040F272
:103580002551024800F00CF800BF10BD0048004073
:10359000890000208A0000206700002062000020CF
:1035A00010B50022002340F66A14A14200D100BFEA
:1035B0000A1201249440A3B2DC43048010BD21B15F
:1035C000828942F40052828104E082894DF6FF73C1
:1035D0001A408281704702460020B1F5007F00D179
:1035E00000BF13880B400BB1012000E000207047A2
:1035F00070B50246002400230025002040F66A161C
:10360000B14200D100BFC1F3421501F01F030126F2
:1036100006FA03F3012D02D19689334006E0022D0C
:1036200002D1168A334001E0968A33400C120126FB
:1036300006FA04F41688344013B10CB1012000E0FE
:10364000002070BDF0B503460024002600250020B0
:1036500040F66A17B94200D100BF1846C1F34214C0
:1036600001F01F06012707FA06F5012C01D10C30E5
:1036700004E0022C01D1103000E014301AB10768C8
:103680002F43076002E00768AF430760F0BD00000A
:103690002DE9F04786B005460E460024A24600BF3D
:1036A000A1460027B08900B100BF2F462C8A4CF6F6
:1036B000FF700440F08804432C82AC894EF6F3106E
:1036C0000440B08831890843718908430443AC81C0
:1036D000AC8A4FF6FF400440B0890443AC8201A895
:1036E000FEF74CFD1F48874202D1DDF810A001E033
:1036F000DDF80CA0A88900F4004040B10AEBCA0034
:1037000000EB0A1031684900B0FBF1F807E00AEB62
:10371000CA0000EB0A1031688900B0FBF1F86420A0
:10372000B8FBF0F004012009642101FB1089A8898D
:1037300000F4004040B1322000EBC900B0FBF1F0D2
:1037400000F00700044308E0322000EB0910642178
:10375000B0FBF1F000F00F0004432C8106B0BDE88F
:10376000F08700000038014001468888C0F3080057
:103770007047C1F308028280704700BFFEE7000077
:1037800037B514460846064B6A46214600F0E2F873
:1037900004466946002000F074FC20463EBD00004F
:1037A0008340000802E008C8121F08C1002AFAD1AD
:1037B00070477047002001E001C1121F002AFBD1B1
:1037C000704700000149086070470000B400002005
:1037D0002DE9FF5F82B00021DDE90430020DDDF844
:1037E00040B0034318D044F61050A2F2FF324243D7
:1037F0001514119801281FD0A5EB0B00401C5FEA9F
:10380000000A4FF000064E4FDFF83891B0465046A0
:1038100015D5CAF1000413E0119801244AA3012828
:1038200001D16FEA0B010298119AC0E90031C0E999
:10383000024206B0BDE8F09FCBF10000DFE704468E
:103840000021404A491842EB0450CDE9001012E033
:10385000E00707D032463B4640464946FCF78AFD22
:103860008046894632463B4610461946FCF782FDA3
:1038700006460F466410002CEAD1DDE90401DDE9BB
:103880000023BAF1000F06DAFCF774FD42464B46FE
:10389000FCF770FD05E0FCF7DFFD42464B46FCF708
:1038A000DBFD04460E460022284BFDF745F803D801
:1038B0004FF0FF30014607E00022254B20463146FD
:1038C000FCF7B1FCFDF71FF8102409E0002C0ADB1F
:1038D0000A220023FCF7D0FE039B30321A55641EE7
:1038E00050EA0102F2D1641C039AC4F1110314449A
:1038F000119A012A03D0012208430DD10AE008439E
:1039000004D000204FF0110B119072E7A3EB0B05D0
:103910006D1E0DE05B4504DD4FF0000205F1010571
:1039200004E003DA4FF00002A5F10105002AECD013
:1039300002981199C0E90231C0E9004579E7000019
:10394000000014400000F03F300000000000F04391
:103950000000E03F2DE9FF4F95B09B4689460646A3
:1039600000250FE2252877D100242746F84A0121B7
:10397000059400E0044316F8013F203B01FA03F0F0
:103980001042F7D130782A2811D06FF02F03307809
:10399000A0F13002092A16D8059A44F0020402EB7D
:1039A000820203EB42021044761C0590EFE759F8BF
:1039B000042B0592002A03DA504244F40054059087
:1039C00044F00204761C30782E2816D116F8010F28
:1039D00044F004042A280DD06FF02F023078A0F1B3
:1039E0003003092B09D807EB870302EB4303C71801
:1039F000761CF3E759F8047B761C30786C280FD0DE
:103A000006DC4C2817D068280DD06A2814D104E0B1
:103A1000742810D07A280FD10DE044F400140AE085
:103A200044F4801401E044F440147278824202D1DC
:103A300004F58014761C761C307866280BD013DCD5
:103A4000582877D009DC002875D04528F6D04628BC
:103A5000F4D047281AD19DE118E0632835D06428B6
:103A600079D0652812D195E1702873D008DC6728D9
:103A7000F1D069286FD06E280DD06F2806D1B5E03F
:103A800073282CD0752875D0782874D05A46179989
:103A900090476D1C75E1C4F30250022809D0032839
:103AA0000DD0D9F8001004280DD00D6009F10409DB
:103AB00067E1D9F80010EA17C1E90052F6E7D9F832
:103AC00000100D80F2E70D70F0E719F8041B8DF877
:103AD000001000208DF80100EA46012003E059F8AB
:103AE00004AB4FF0FF3061074FF0000102D40DE04E
:103AF00008F101018846B9420FDA8045F8DB1AF86F
:103B000008100029F4D108E008F10101884681423B
:103B1000FADB1AF808100029F6D105985B46A0EBED
:103B2000080721463846179A00F094FA284400EB1B
:103B3000080507E04DE029E10DE01AF8010B5A46AF
:103B400017999047B8F10108F7D25B4621463846ED
:103B5000179A13E142E00A220092C4F302524FF096
:103B6000000A022A08D059F804CB032A4FEAEC7164
:103B70000AD00DE029E02AE009F1070121F007024F
:103B8000F2E802C1914609E00FFA8CFC4FEAEC71B1
:103B9000042A03D14FFA8CFC4FEAEC71002907DAB2
:103BA0000A460021DCF1000C61EB02012D2202E04B
:103BB000220504D52B228DF80420012203E0E20720
:103BC00001D02022F7E7904659E00A2102E01022B6
:103BD0000DE010214FF0000A00910BE010224FF091
:103BE000000A44F004040827009203E008224FF082
:103BF000000A0092C4F30252022A05D059F804CBFD
:103C00000021032A08D009E009F1070121F0070289
:103C1000F2E802C1914605E01FFA8CFC042A01D1AA
:103C20000CF0FF0C4FF00008220728D5702806D0B2
:103C3000009B83F0100353EA0A0305D00EE04022F4
:103C40008DF80420012208E05CEA010206D030224F
:103C50008DF804208DF8050002229046009B83F029
:103C6000080353EA0A030AD15CEA010201D16207A0
:103C700005D530228DF804204FF001087F1E58280A
:103C800004D034A003900EA802900DE036A0F9E70E
:103C900053466046009AFCF7EFFC84460398825C2A
:103CA0000298401E029002705CEA0100F0D1029876
:103CB00006A9081A00F1200A600702D524F480340E
:103CC00000E00127574502DDA7EB0A0000E00020D5
:103CD00000EB0A01009005984144401A0590E0036A
:103CE00006D45B462146179A059800F0B3F90544BF
:103CF000002706E001A85A46C05D179990476D1C41
:103D00007F1C4745F6DBE0030CD55B462146179A3E
:103D1000059800F09FF9054404E030205A461799B1
:103D200090476D1C0099481E00900029F5DC08E0C2
:103D3000029802995A460078491C029117999047B7
:103D40006D1CBAF10001AAF1010AF1DC65E1000085
:103D50000928010030313233343536373839616261
:103D60006364656600000000303132333435363725
:103D700038394142434445460000000000F058F9FC
:103D80000544761C307800287FF4ECAD19B0284645
:103D9000BDE8F08F620700D4062709F1070222F080
:103DA000070CFCE80223E14603F000485FEA080C38
:103DB00002D00FF2702C0DE05FEA045C02D50FF226
:103DC000682C07E05FEAC47C02D00FF2602C01E0AF
:103DD000AFF2700C4FF0FF3823F00043CDF850C025
:103DE00065280CD006DC452809D046281DD0472878
:103DF0003DD13DE0662818D067287ED138E000210B
:103E0000112F01DB112000E0781CCDE9000106A98B
:103E10000EA8FFF7DDFCDDE90F010E9A03910021EA
:103E2000009207F1010A04914DE04FF00040009725
:103E3000CDE9011006A90EA8FFF7CAFCDDE90F02C3
:103E400003920E9B11990022DDF80CA000930492BE
:103E500011B9791C00EB010AB7EB0A0004D4C0F1D8
:103E6000FF3007F1010A0490AAEB0700019044E03B
:103E7000012F00DA01270021112F01DD112000E0C0
:103E80003846CDE9000106A90EA8FFF7A1FCDDE93F
:103E90000F010E9A0391002104910092BA46210766
:103EA0000CD40399514500DA8A46BAF1010F05DDB9
:103EB000009AAAF10101515C302908D0B84202DA17
:103EC00010F1040F06DA0121CDE9011015E0AAF185
:103ED0000101E9E7002805DC049901440491AAEBFB
:103EE000000102E0411C514500DD8A460499401A58
:103EF000401C01904FF000400290200704D401982C
:103F0000504501DBCDF8048000208DF84F00029869
:103F10000DF14F07B0F1004F25D02B200E900298E5
:103F20004FF0020800280CDA404202902D200E903B
:103F300007E00A210298FCF789FB3031029007F86C
:103F4000011DB8F10001A8F10108F2DC0298002877
:103F5000EFD1791E0E980870307800F0200040F004
:103F6000450007F8020D12A8C01B00F107081498BD
:103F7000007800B1012000EB0A01019801EBE0712B
:103F800005984144401A401E0590E00306D45B4664
:103F90002146179A059800F05DF8054414980078BA
:103FA00018B15A46179990476D1CE00324D55B461B
:103FB0002146179A059800F04DF805441CE0049836
:103FC000002807DBDDE90301884203DD0098405C3F
:103FD000179901E0179930205A469047049805F147
:103FE0000105401C04900198401E019004D12E2030
:103FF0005A46179990476D1CBAF10001AAF1010ABF
:10400000DDDC05E017F8010B5A46179990476D1C47
:10401000B8F10001A8F10108F4DC5B462146179ACB
:104020000598ABE62D0000002B00000020000000EA
:104030002DE9F041044600251E461746880404D4A5
:1040400005E039462020B0476D1C641EF9D528468E
:10405000BDE8F0812DE9F041044600251E4690465A
:10406000C80301D5302700E02027880404D505E0E7
:1040700041463846B0476D1C641EF9D52846BDE858
:10408000F0810A68531C0B601070704701460029CC
:1040900001DD88B27047484280B2FBE710B550207E
:1040A00006494880084640880988401A00B20349FA
:1040B0008880B1F9040000F0A1F910BDAE00002025
:1040C00010B56E2006494880084640880988401A85
:1040D00000B203498880B1F9040000F08FF910BDE7
:1040E000AE00002010B5B720064948800846408839
:1040F0000988401A00B203498880B1F9040000F031
:104100003BF910BDAE00002010B56920064948807B
:10411000084640880988401A00B203498880B1F9EE
:10412000040000F029F910BDAE00002010B50020F9
:1041300006494880084640880988401A00B2034969
:104140008880B1F9040000F017F910BDAE0000201E
:1041500010B5692006494880084640880988401AF9
:1041600000B203498880B1F9040000F005F910BDE0
:10417000AE00002010B564200649488008464088FB
:104180000988401A00B203498880B1F9040000F0A0
:10419000F3F810BDAE00002010B5AA2006494880F3
:1041A000084640880988401A00B203498880B1F95E
:1041B000040000F0E1F810BDAE00002010B50020B2
:1041C00006494880084640880988401A00B20349D9
:1041D0008880B1F9040000F0CFF810BDAE000020D7
:1041E00010B5002006494880084640880988401AD2
:1041F00000B203498880B1F9040000F0FFF810BD57
:10420000AE00002010B5502006494880084640887E
:104210000988401A00B203498880B1F9040000F00F
:10422000ABF810BDAE00002010B56E2006494880E6
:10423000084640880988401A00B203498880B1F9CD
:10424000040000F099F810BDAE00002010B5642005
:1042500006494880084640880988401A00B2034948
:104260008880B1F9040000F087F810BDAE0000208E
:1042700010B5FCF723FEFEF779F8FEF7C7F800202B
:10428000024908804880888010BD0000AE000020F0
:1042900010B5522006490870FDF7DAFF192000F02A
:1042A000A9F95220FDF7D4FF192000F0A3F910BDA1
:1042B0009100002010B5FFF727FFC82000F09AF901
:1042C000FFF7E6FF4FF4FA7000F094F9FFF7BEFF36
:1042D00000F05AF9C82000F08DF94FF4FA7000F0A0
:1042E00089F9FFF7FFFE00F035F84FF4FA7000F09F
:1042F00081F9FFF7ABFF00F03DF9C82000F07AF933
:104300004FF4FA7000F076F900F0E8F9642000F05C
:1043100071F910BD10B5FFF709FFFFF7B9FFFFF7FF
:1043200095FFC82000F066F900F02EF9C82000F0D3
:1043300061F9FFF7D7FE00F00DF8FFF787FF00F0F7
:1043400019F9C82000F056F900F0C8F9642000F00F
:1043500051F910BD10B5002006490870FDF778FF2F
:10436000192000F047F90020FDF772FF192000F036
:1043700041F910BD9100002070B5044600251C488D
:104380000088204400B21A4908800846B0F90000AD
:10439000002804DB0846B0F90000DC2806DD1448DC
:1043A0000088001B00B21249088020E0002C03DDC9
:1043B0000120FDF793FC04E0604204B20020FDF709
:1043C0008DFCA5010B48056000200B4908604023C7
:1043D000202211462846FDF7C1FA06E0064800688B
:1043E00004490968884200D100E0F7E700BF70BDCA
:1043F000AE000020A80000209800002070B5044600
:10440000002517480088204400B215490880084656
:10441000B0F90000002804DB0846B0F90000DC28F1
:1044200006DD0F480088001B00B20D49088016E029
:10443000002C03DD0120FDF751FC04E0604204B2D2
:104440000020FDF74BFCA501064805600020064949
:1044500008604023202211462846FDF77FFA70BDF0
:10446000AE000020A80000209800002010B5FFF743
:1044700071FFFFF7EBFE4FF4FA7000F0BBF800F0AD
:1044800083F840F2DC5000F0B5F8FFF72BFEFFF7A1
:10449000FFFE4FF4967000F0ADF8FFF7D7FE4FF433
:1044A000FA7000F0A7F800F065F84FF4967000F08D
:1044B000A1F800F013F9FFF739FE4FF4967000F001
:1044C00099F8FFF747FF4FF4967000F093F810BD8E
:1044D00010B5FFF73FFFFFF7B9FE00F055F8C82011
:1044E00000F088F8FFF7FEFDFFF7D2FE4FF496705C
:1044F00000F080F8FFF7AAFE00F03CF84FF4967049
:1045000000F078F800F0EAF8FFF722FE4FF496701A
:1045100000F070F8FFF71EFF4FF4967000F06AF895
:1045200010BD10B5FFF716FFFFF790FE00F02CF856
:10453000C82000F05FF8FFF7D5FDFFF7A9FE4FF4A4
:10454000967000F057F8FFF781FE00F013F84FF473
:10455000967000F04FF800F0C1F8FFF70BFE4FF433
:10456000967000F047F8FFF7F5FE4FF4967000F0F4
:1045700041F810BD10B5002002490870FDF78EFE0D
:1045800010BD00009200002010B5B4200249087050
:10459000FDF784FE10BD00009200002010B5FCF76E
:1045A00031FDFCF7CDFDFCF709FFFCF7AFFF10BDB7
:1045B00010B56FF00400FDF7EDFF0A4800680A49E6
:1045C000B0FBF1F0094908700846007800EB4001A3
:1045D000C1EBC0104FF6FF7101EAC000044908802A
:1045E00010BD00001000002000127A0024000020FE
:1045F000260000200146114A12884A434FF0E0236A
:104600005A6100229A611A46126942F001021A6147
:1046100000BF4FF0E022106900F001021AB100F46F
:104620008032002AF5D04FF0E022126922F0010218
:104630004FF0E0231A6100229A61704726000020A3
:1046400000F055F8FFF7AAFFFFF712FEFCF718FE7F
:1046500008E0FDF77DFE012804D100F0ABF8012051
:10466000FEF79CFEF5E730B505460C462846FFF7F9
:104670000DFD02462046FFF709FD03469A4201DD83
:10468000104630BD934201DD1846FAE70020F8E7F6
:104690002DE9F04106460F46FCF7E4F8041E0D46EE
:1046A00018BF0120284320F00040C0F17F6000F1D6
:1046B000E040C00F0ED0301C18BF0120384320F05E
:1046C0000040C0F17F6000F1E040C00F04BF012056
:1046D000FFF778F820462946BDE8F08110B504239D
:1046E0000222114640F22B40FDF7FEF910BD10B535
:1046F000FFF75EFF4FF4A060FDF73AFBFCF7AEFB5F
:10470000FCF754FBFDF778FBFEF72EFDFEF780FD6E
:10471000FEF7C4FA3220FFF76DFF00F037FB10BD43
:104720000FB438B505A800902048009A0499FFF707
:1047300027F8002000901D48FBF716FD85B20024E5
:104740000DE01A48015D1A48FFF713F800BF402139
:104750001748FEF740FF0028F9D0601C84B2AC4235
:10476000EFDBFF211248FFF704F800BF802110485B
:10477000FEF731FF0028F9D0FF210D48FEF7F9FFC1
:1047800000BF80210A48FEF726FF0028F9D0FF214C
:104790000748FEF7EEFF00BF80210548FEF71BFF2C
:1047A0000028F9D038BC5DF814FB0000D9000020C7
:1047B000004400402DE9F04F87B00025F848057807
:1047C0000027B846B9460024A2460020069005906E
:1047D000049003900290019000260090102D71D259
:1047E000DFE805F070081D32AFF3F1F0EFEEEDEC0D
:1047F000EBEAE9E8EA48407847B20020E949086076
:1048000000213846FCF776FF06E0E6480068E649F6
:104810000968884200D100E0F7E700BF4EE2E048B7
:1048200080784FFA80F80020DE4908604146FCF7A6
:1048300061FF06E0DB480068DB490968884200D177
:1048400000E0F7E700BF39E2D548C0784FFA80F9B9
:10485000D6480068FBF785FE44B24FF0000A0020FE
:10486000D04908602046FBF766FE83465146FBF7B9
:10487000D7FC0590A9EB0400FBF75DFE06900698B7
:10488000FBF76FFE4FFA80FB5846FCF7DFFE06E0B1
:10489000C4480068C6490988884200D100E0F7E7AB
:1048A00000BF04F15A0000EB80000221B1EB400F81
:1048B00007DA04F15A0000EB8000091FB1EB400F4A
:1048C00001DCFBE1F9E10698FBF74BFE4FFA80FBB8
:1048D0005846FCF7BBFE06E0B2480068B4490988B8
:1048E000884200D100E0F7E700BF04F15A00022837
:1048F00002DD10F1020F00DBE0E10698FBF731FE6C
:104900004FFA80FB5846FCF7A1FE06E0A548006878
:10491000A7490988884200D100E0F7E700BFFFF708
:1049200095FCFF20FEF72AFDAA20FEF727FD762042
:10493000FEF724FD0020FEF721FD0020FEF71EFDFE
:10494000BCE1974840799649097900EB012080B293
:1049500004909348C0799249897900EB012080B294
:10496000039094A0DDE90321FFF7DAFE0A20FFF7A8
:1049700041FE90A0DDE90321FFF7D2FE0A20FFF7F8
:1049800039FE8CA0DDE90321FFF7CAFE0A20FFF7FC
:1049900031FE88A0DDE90321FFF7C2FE0A20FFF700
:1049A00029FE84A0DDE90321FFF7BAFE0A20FFF704
:1049B00021FE83E17EE178E168E05AE03BE037E008
:1049C00033E02FE02BE015E0FFE77548407847B271
:1049D00000207449086000213846FCF7A7FE06E075
:1049E0007048006870490968884200D100E0F7E724
:1049F00000BF63E16A4880784FFA80F80020694977
:104A000008604146FCF792FE06E066480068664989
:104A10000968884200D100E0F7E700BF4EE1FFF7E8
:104A200049FC4BE1FFF776FC48E1FFF71FFD45E14C
:104A3000FFF74EFD42E15A48407802900298012863
:104A400006D0022809D003280AD004280ED10AE093
:104A5000FFF790FDFFF7B2FB09E0FFF79DFB06E0D3
:104A6000FFF7D0FB03E0FFF7DFFB00E000BF00BF74
:104A700024E14B4840784A49897800EB012080B214
:104A80000190019800B2FFF777FC17E1444846789F
:104A9000807840B20090072E74D2DFE806F07304ED
:104AA0002645649AD00000203E49086045490860C8
:104AB00000210098FCF71EFEFFF75CFD4FF44870E4
:104AC000FFF798FDFFF78CFB0CE03648006836498D
:104AD0000968884206D13B4800683B49096888421A
:104AE00000D100E0F1E700BFDDE000202D490860C3
:104AF0003449086000210098FCF7FCFDC820FFF74E
:104B000079FDFFF749FB0CE0264800682649096853
:104B1000884206D12B4800682B490968884200D199
:104B200000E0F1E700BFBEE000201E490860254913
:104B3000086000210098FCF7DDFDC820FFF75AFD52
:104B4000FFF7ACFA0CE0174800681749096888427B
:104B500006D11C4800681C490968884200D100E061
:104B6000F1E700BF9FE000200E490860154908608A
:104B700000210098FCF7BEFDC820FFF73BFDFFF7C2
:104B80009FFA23E08EE007480068074909688842D9
:104B90001CD10C4800680C490968884216D116E0FF
:104BA0006700002094000020A000002000000020EA
:104BB000A400002074332E7478743D2225642B25C4
:104BC0006422000098000020A8000020DBE700BF5E
:104BD00069E000203B4908603B490860FFF794FA10
:104BE000FFF756FBC820FFF705FDFFF72FFBC82096
:104BF000FFF700FDFFF7C8FCC820FFF7FBFC002112
:104C00000098FCF777FDFFF76DFA4FF44870FFF757
:104C1000F1FCFFF79FFBFFF719FBFFF7ABFCC82088
:104C2000FFF7E8FCFFF75AFD06E026480068274931
:104C30000968884200D100E0F7E700BF33E00020B8
:104C40002049086020490860FFF770FAFFF720FB51
:104C5000FFF7FCFAC820FFF7CDFCFFF795FCC82052
:104C6000FFF7C8FC00210098FCF744FDFFF73AFA73
:104C70004FF44870FFF7BEFCFFF76CFBFFF7E6FA56
:104C8000FFF778FCC820FFF7B5FCFFF727FD06E02B
:104C90000C4800680D490968884200D100E0F7E738
:104CA00000BF00E000BF00BF08E0FFF7CFFAFFF74A
:104CB0006BFC03E0FFF735FC00E000BF00BF07B06E
:104CC000BDE8F08F9400002098000020A000002094
:104CD00070B500240EE0002508E0E02004EB44015C
:104CE000084A02EBC1014855681CC5B2182DF4DB17
:104CF000601C84B20E2CEEDB00F08AF88C20FFF7EB
:104D000079FC70BDEC01002000B58BB00121084694
:104D1000FDF704FA0F48FBF7A9FE0F4800900F4873
:104D20000190102002904FF4A8700390002004908E
:104D30008020059000200690079008904FF4805046
:104D4000099000200A9069460248FBF735FF0BB036
:104D500000BD0000300002400C300140EC0100209A
:104D600008B501210420FDF7F9F98020ADF8000015
:104D700018208DF8030003208DF8020069460248D0
:104D8000FBF73BFF08BD00000008014010B5FFF72E
:104D9000E7FF00F009F8FFF7B7FFFFF799FF8C2056
:104DA000FFF728FC10BD000000B585B00121080305
:104DB000FDF7D4F94FF44040ADF800004FF4827095
:104DC000ADF802000020ADF80400ADF806000120A7
:104DD000ADF808004002ADF80A001020ADF80C0054
:104DE0000020ADF80E000720ADF810006946074816
:104DF000FDF78FFA01210548FDF776FA012202211D
:104E00000248FDF77DFA05B000BD0000003001400A
:104E100010B500210848FBF71DFE4FF40070FBF7AA
:104E20000BFE4FF4A8710448FBF7E4FE0121024891
:104E3000FBF710FE10BD0000300002405C4E000881
:104E400000000020B8000000A4370008144F00083C
:104E5000B8000020A0060000B437000800000000E1
:104E600000000000000000000000000000A24A0452
:104E7000000000000000000001020304060708090A
:104E8000000000000000000001020304010203040E
:104E900006070809020406080000000000000000E0
:104EA0000000000000000000000000000000000002
:104EB00000000000000000000000000000000000F2
:104EC00000000000000000000000000000000000E2
:104ED00000000000000000000000000000000000D2
:104EE00000000000000000000000000000000000C2
:104EF00000000000000000000000000000000000B2
:104F000000000000000000000000000000000000A1
:044F1000000000009D
:0400000508000145A9
:00000001FF
